{
  "contractName": "Bank",
  "abi": [
    {
      "inputs": [
        {
          "internalType": "contract StableCoin",
          "name": "_stablecoin",
          "type": "address"
        },
        {
          "internalType": "contract Token",
          "name": "_rewardToken",
          "type": "address"
        }
      ],
      "stateMutability": "nonpayable",
      "type": "constructor"
    },
    {
      "anonymous": false,
      "inputs": [
        {
          "indexed": true,
          "internalType": "address",
          "name": "user",
          "type": "address"
        },
        {
          "indexed": false,
          "internalType": "uint256",
          "name": "amount",
          "type": "uint256"
        }
      ],
      "name": "Deposited",
      "type": "event"
    },
    {
      "anonymous": false,
      "inputs": [
        {
          "indexed": false,
          "internalType": "uint256",
          "name": "totalRecipients",
          "type": "uint256"
        }
      ],
      "name": "RewardsIssued",
      "type": "event"
    },
    {
      "anonymous": false,
      "inputs": [
        {
          "indexed": true,
          "internalType": "address",
          "name": "user",
          "type": "address"
        },
        {
          "indexed": false,
          "internalType": "uint256",
          "name": "amount",
          "type": "uint256"
        }
      ],
      "name": "Unstaked",
      "type": "event"
    },
    {
      "inputs": [
        {
          "internalType": "address",
          "name": "",
          "type": "address"
        }
      ],
      "name": "hasStaked",
      "outputs": [
        {
          "internalType": "bool",
          "name": "",
          "type": "bool"
        }
      ],
      "stateMutability": "view",
      "type": "function"
    },
    {
      "inputs": [
        {
          "internalType": "address",
          "name": "",
          "type": "address"
        }
      ],
      "name": "isStaking",
      "outputs": [
        {
          "internalType": "bool",
          "name": "",
          "type": "bool"
        }
      ],
      "stateMutability": "view",
      "type": "function"
    },
    {
      "inputs": [],
      "name": "name",
      "outputs": [
        {
          "internalType": "string",
          "name": "",
          "type": "string"
        }
      ],
      "stateMutability": "view",
      "type": "function"
    },
    {
      "inputs": [],
      "name": "owner",
      "outputs": [
        {
          "internalType": "address",
          "name": "",
          "type": "address"
        }
      ],
      "stateMutability": "view",
      "type": "function"
    },
    {
      "inputs": [],
      "name": "rewardToken",
      "outputs": [
        {
          "internalType": "contract Token",
          "name": "",
          "type": "address"
        }
      ],
      "stateMutability": "view",
      "type": "function"
    },
    {
      "inputs": [],
      "name": "stablecoin",
      "outputs": [
        {
          "internalType": "contract StableCoin",
          "name": "",
          "type": "address"
        }
      ],
      "stateMutability": "view",
      "type": "function"
    },
    {
      "inputs": [
        {
          "internalType": "address",
          "name": "",
          "type": "address"
        }
      ],
      "name": "stakingBalance",
      "outputs": [
        {
          "internalType": "uint256",
          "name": "",
          "type": "uint256"
        }
      ],
      "stateMutability": "view",
      "type": "function"
    },
    {
      "inputs": [
        {
          "internalType": "uint256",
          "name": "_amount",
          "type": "uint256"
        }
      ],
      "name": "depositTokens",
      "outputs": [],
      "stateMutability": "nonpayable",
      "type": "function"
    },
    {
      "inputs": [],
      "name": "issueTokens",
      "outputs": [],
      "stateMutability": "nonpayable",
      "type": "function"
    },
    {
      "inputs": [],
      "name": "unstakeTokens",
      "outputs": [],
      "stateMutability": "nonpayable",
      "type": "function"
    },
    {
      "inputs": [],
      "name": "stakers",
      "outputs": [
        {
          "internalType": "address[]",
          "name": "",
          "type": "address[]"
        }
      ],
      "stateMutability": "view",
      "type": "function"
    }
  ],
  "bytecode": "0x60c0604052600e60808190526d446563656e7472616c2042616e6b60901b60a0908152620000319160009190620000a4565b503480156200003f57600080fd5b5060405162000c0638038062000c0683398101604081905262000062916200014a565b600280546001600160a01b039384166001600160a01b0319918216179091556003805492909316918116919091179091556001805490911633179055620001df565b828054620000b29062000189565b90600052602060002090601f016020900481019282620000d6576000855562000121565b82601f10620000f157805160ff191683800117855562000121565b8280016001018555821562000121579182015b828111156200012157825182559160200191906001019062000104565b506200012f92915062000133565b5090565b5b808211156200012f576000815560010162000134565b600080604083850312156200015e57600080fd5b82516200016b81620001c6565b60208401519092506200017e81620001c6565b809150509250929050565b600181811c908216806200019e57607f821691505b60208210811415620001c057634e487b7160e01b600052602260045260246000fd5b50919050565b6001600160a01b0381168114620001dc57600080fd5b50565b610a1780620001ef6000396000f3fe608060405234801561001057600080fd5b50600436106100a95760003560e01c8063a5ce413b11610071578063a5ce413b14610162578063c93c8f341461016a578063dd49756e1461018d578063e9cbd822146101a0578063f7c618c1146101b3578063fed1252a146101c657600080fd5b806306fdde03146100ae57806345bc78ab146100cc57806360ab5852146100fa5780636f49712b146101045780638da5cb5b14610137575b600080fd5b6100b66101db565b6040516100c391906108d0565b60405180910390f35b6100ec6100da366004610818565b60046020526000908152604090205481565b6040519081526020016100c3565b610102610269565b005b610127610112366004610818565b60056020526000908152604090205460ff1681565b60405190151581526020016100c3565b60015461014a906001600160a01b031681565b6040516001600160a01b0390911681526020016100c3565b61010261040f565b610127610178366004610818565b60066020526000908152604090205460ff1681565b61010261019b36600461086a565b6105ab565b60025461014a906001600160a01b031681565b60035461014a906001600160a01b031681565b6101ce6107b6565b6040516100c39190610883565b600080546101e89061095f565b80601f01602080910402602001604051908101604052809291908181526020018280546102149061095f565b80156102615780601f1061023657610100808354040283529160200191610261565b820191906000526020600020905b81548152906001019060200180831161024457829003601f168201915b505050505081565b6001546001600160a01b031633146102c85760405162461bcd60e51b815260206004820152601860248201527f43616c6c6572206d75737420626520746865206f776e6572000000000000000060448201526064015b60405180910390fd5b6000805b6007548110156103d8576000600782815481106102eb576102eb6109cb565b60009182526020808320909101546001600160a01b0316808352600490915260409091205490915080156103c3576003546001600160a01b031663a9059cbb8361033660098561093d565b6040516001600160e01b031960e085901b1681526001600160a01b0390921660048301526024820152604401602060405180830381600087803b15801561037c57600080fd5b505af1158015610390573d6000803e3d6000fd5b505050506040513d601f19601f820116820180604052508101906103b49190610848565b50836103bf8161099a565b9450505b505080806103d09061099a565b9150506102cc565b506040518181527fb5c36a67db408b3b96faf7f2b263e25efb02e2aa826038868a38ee2b1b5209789060200160405180910390a150565b336000908152600460205260409020548061047e5760405162461bcd60e51b815260206004820152602960248201527f5374616b696e672062616c616e6365206d7573742062652067726561746572206044820152687468616e207a65726f60b81b60648201526084016102bf565b336000818152600460208181526040808420849055600590915291829020805460ff19169055600254915163a9059cbb60e01b815290810192909252602482018390526001600160a01b03169063a9059cbb90604401602060405180830381600087803b1580156104ee57600080fd5b505af1158015610502573d6000803e3d6000fd5b505050506040513d601f19601f820116820180604052508101906105269190610848565b6105725760405162461bcd60e51b815260206004820152601760248201527f556e7374616b65207472616e73666572206661696c656400000000000000000060448201526064016102bf565b60405181815233907f0f5bb82176feb1b5e747e28471aa92156a04d9f3ab9f45f28e2d704232b93f75906020015b60405180910390a250565b6000811161060c5760405162461bcd60e51b815260206004820152602860248201527f4465706f73697420616d6f756e74206d7573742062652067726561746572207460448201526768616e207a65726f60c01b60648201526084016102bf565b6002546040516323b872dd60e01b8152336004820152306024820152604481018390526001600160a01b03909116906323b872dd90606401602060405180830381600087803b15801561065e57600080fd5b505af1158015610672573d6000803e3d6000fd5b505050506040513d601f19601f820116820180604052508101906106969190610848565b6106d45760405162461bcd60e51b815260206004820152600f60248201526e151c985b9cd9995c8819985a5b1959608a1b60448201526064016102bf565b33600090815260046020526040812080548392906106f3908490610925565b90915550503360009081526006602052604090205460ff1661076a576007805460018181019092557fa66cc928b5edb82af9bd49922954155ab7b0942694bea4ce44661d9a8736c6880180546001600160a01b031916339081179091556000908152600660205260409020805460ff191690911790555b3360008181526005602052604090819020805460ff19166001179055517f2da466a7b24304f47e87fa2e1e5a81b9831ce54fec19055ce277ca2f39ba42c4906105a09084815260200190565b6060600780548060200260200160405190810160405280929190818152602001828054801561080e57602002820191906000526020600020905b81546001600160a01b031681526001909101906020018083116107f0575b5050505050905090565b60006020828403121561082a57600080fd5b81356001600160a01b038116811461084157600080fd5b9392505050565b60006020828403121561085a57600080fd5b8151801515811461084157600080fd5b60006020828403121561087c57600080fd5b5035919050565b6020808252825182820181905260009190848201906040850190845b818110156108c45783516001600160a01b03168352928401929184019160010161089f565b50909695505050505050565b600060208083528351808285015260005b818110156108fd578581018301518582016040015282016108e1565b8181111561090f576000604083870101525b50601f01601f1916929092016040019392505050565b60008219821115610938576109386109b5565b500190565b60008261095a57634e487b7160e01b600052601260045260246000fd5b500490565b600181811c9082168061097357607f821691505b6020821081141561099457634e487b7160e01b600052602260045260246000fd5b50919050565b60006000198214156109ae576109ae6109b5565b5060010190565b634e487b7160e01b600052601160045260246000fd5b634e487b7160e01b600052603260045260246000fdfea26469706673582212207b43566af9c2f9f9fddeb253a0db9ed0f5c0aef1137a3ae0d065b06513686a5764736f6c63430008060033",
  "immutableReferences": {},
  "source": "// SPDX-License-Identifier: MIT\npragma solidity ^0.8.6;\n\nimport \"./StableCoin.sol\";\nimport \"./Token.sol\";\n\ncontract Bank {\n    string public name = \"Decentral Bank\";\n    address public owner;\n    StableCoin public stablecoin;\n    Token public rewardToken;\n\n    mapping(address => uint256) public stakingBalance;\n    mapping(address => bool) public isStaking;\n    mapping(address => bool) public hasStaked;\n    address[] private _stakers;\n\n    event Deposited(address indexed user, uint256 amount);\n    event Unstaked(address indexed user, uint256 amount);\n    event RewardsIssued(uint256 totalRecipients);\n\n    constructor(StableCoin _stablecoin, Token _rewardToken) {\n        stablecoin = _stablecoin;\n        rewardToken = _rewardToken;\n        owner = msg.sender;\n    }\n\n    function depositTokens(uint256 _amount) external {\n        require(_amount > 0, \"Deposit amount must be greater than zero\");\n        require(stablecoin.transferFrom(msg.sender, address(this), _amount), \"Transfer failed\");\n\n        stakingBalance[msg.sender] += _amount;\n\n        if (!hasStaked[msg.sender]) {\n            _stakers.push(msg.sender);\n            hasStaked[msg.sender] = true;\n        }\n\n        isStaking[msg.sender] = true;\n\n        emit Deposited(msg.sender, _amount);\n    }\n\n    function issueTokens() external {\n        require(msg.sender == owner, \"Caller must be the owner\");\n\n        uint256 recipients;\n        for (uint256 i = 0; i < _stakers.length; i++) {\n            address recipient = _stakers[i];\n            uint256 balance = stakingBalance[recipient];\n            if (balance > 0) {\n                rewardToken.transfer(recipient, balance / 9); // simple reward ratio\n                recipients++;\n            }\n        }\n\n        emit RewardsIssued(recipients);\n    }\n\n    function unstakeTokens() external {\n        uint256 balance = stakingBalance[msg.sender];\n        require(balance > 0, \"Staking balance must be greater than zero\");\n\n        stakingBalance[msg.sender] = 0;\n        isStaking[msg.sender] = false;\n        require(stablecoin.transfer(msg.sender, balance), \"Unstake transfer failed\");\n\n        emit Unstaked(msg.sender, balance);\n    }\n\n    function stakers() external view returns (address[] memory) {\n        return _stakers;\n    }\n}\n",
  "sourcePath": "/workspace/defi-staking-app-starter/defi-staking-app-starter/contracts/Bank.sol",
  "compiler": {
    "name": "solc",
    "version": "0.8.6+commit.11564f7e.Emscripten.clang"
  },
  "schemaVersion": "3.2.3",
  "updatedAt": "2025-11-28T22:42:38.502Z",
  "devdoc": {
    "kind": "dev",
    "methods": {},
    "version": 1
  },
  "userdoc": {
    "kind": "user",
    "methods": {},
    "version": 1
  }
}